:1000000002C1000030C100002EC100002CC1000060
:100010002AC1000028C1000026C1000024C1000040
:1000200022C1000020C100001EC100001CC1000050
:100030001AC1000018C1000016C1000014C1000060
:1000400012C1000010C100000EC100000CC1000070
:100050000AC1000008C1000006C1000082C60000FD
:1000600002C1000048C600001DC60000FCC0000020
:10007000FAC00000F8C00000F6C00000F4C00000A4
:10008000F2C00000F0C00000EEC00000ECC00000B4
:10009000D3C50000A8C50000E6C00000E4C0000011
:1000A000E2C00000E0C00000DEC00000DCC00000D4
:1000B000DAC00000D8C00000D6C00000D4C00000E4
:1000C000D2C00000D0C00000CEC00000CCC00000F4
:1000D000CAC00000C8C00000C6C00000C4C0000004
:1000E000C2C0000000002100240027002A002D00CB
:1000F0003000330001010000040107010A01000083
:100100002200250028002B002E00310034000201BF
:100110000000050108010B0100000A0B02090C0D8B
:100120000E080703040100000000000000000000AA
:1001300000000000000000000000000000000000BF
:10014000000000001211100000000000000000007C
:10015000000000000000000000000000000000009F
:1001600020002300260029002C002F00320000016F
:10017000000003010601090105050505070508083A
:100180000808020202020A0A080804040404010121
:100190000101010101010303030303030303040736
:1001A00007070C0C0C0C0C0C0C0C020202020606CD
:1001B0000606060606060B0B0B0B0B0B0B0B0102C0
:1001C0001020200808102040102040800201020169
:1001D0000804020101020408102040808040201021
:1001E000080402018004020180402010080402017A
:1001F00008040201010204081020408001020408E2
:1002000010204080FB0611241FBECFEFD1E2DEBFDD
:10021000CDBF00E00CBF12E0A0E0B2E0EEE9F9E1F2
:1002200000E00BBF02C007900D92AA32B107D9F7C8
:1002300023E0AAE2B2E001C01D92A139B207E1F7C2
:1002400011E0C3E0D1E000E006C021970109802F52
:10025000FE010E94A00BC230D10780E00807A9F779
:10026000BAD60C94CD0CCCCEFC01A089B18982E029
:100270008C93A485B5851C92A685B7858FEC8C934D
:10028000108EA489B58986E08C93A289B3898C915C
:1002900080618C93A289B3898C9188608C93A289A8
:1002A000B3898C9180688C930288F389E02D8081DA
:1002B0008F7D80830895CF92DF92EF92FF92CF934C
:1002C000DF93B0918103A0E08111AB2F8091820375
:1002D00090E0880F991FAC01425A5E4FC09087038F
:1002E000D0908803E0908903F0908A0330E020E00A
:1002F000FA01C591D491E881B90190E080E0EB2347
:10030000EA130AC02F5F3F4F6C157D058E059F05D0
:1003100078F36FEF7FEFCB01DF91CF91FF90EF90FC
:10032000DF90CF900895AF92BF92CF92DF92EF927D
:10033000FF920F931F93CF93DF936C017B018B018F
:10034000040F151FEB015E01AE18BF08C017D107DF
:1003500059F06991D601ED91FC910190F081E02D69
:10036000C6011995892B79F7C501DF91CF911F91AE
:100370000F91FF90EF90DF90CF90BF90AF900895D6
:10038000FC01538D448D252F30E0842F90E0821B9B
:10039000930B541710F0CF96089501970895FC0120
:1003A000918D828D981761F0A28DAE0FBF2FB11D78
:1003B0005D968C91928D9F5F9F73928F90E00895D0
:1003C0008FEF9FEF0895FC01918D828D981731F08A
:1003D000828DE80FF11D858D90E008958FEF9FEFDE
:1003E0000895FC01918D228D892F90E0805C9F4FB4
:1003F000821B91098F739927089583E392E0F1DFBF
:1004000021E0892B09F420E0822F089580ED92E00D
:10041000E8DF21E0892B09F420E0822F0895FC0118
:10042000A48DA80FB92FB11DA35ABF4F2C91848D55
:1004300090E001968F739927848FA689B7892C93B2
:10044000A089B1898C91837080648C93938D848D05
:10045000981306C00288F389E02D80818F7D808308
:100460000895EF92FF920F931F93CF93DF93EC01C8
:1004700081E0888F9B8D8C8D98131AC0E889F9894B
:10048000808185FF15C09FB7F894EE89FF8960834E
:10049000E889F98980818370806480839FBF81E0CF
:1004A00090E0DF91CF911F910F91FF90EF90089511
:1004B000F62E0B8D10E00F5F1F4F0F731127E02EEC
:1004C0008C8D8E110BC00FB607FCFACFE889F98925
:1004D000808185FFF5CFCE01A2DFF2CFEB8DEC0F4F
:1004E000FD2FF11DE35AFF4FF0829FB7F8940B8F59
:1004F000EA89FB8980818062D0CFCF93DF93EC01C2
:10050000888D8823B1F0AA89BB89E889F9898C9103
:1005100085FD03C0808186FD0CC00FB607FCF7CFB8
:100520008C9185FFF2CF808185FFEDCFCE0177DF03
:10053000EACFDF91CF91089580E090E0892B21F000
:1005400065DF81110E94000080E090E0892B21F09E
:1005500054DF81110E94000080E090E0892B49F077
:1005600080E090E0892B29F00E94000081110E9418
:10057000000080E090E0892B49F080E090E0892B3A
:1005800029F00E94000081110C9400000895CF937F
:10059000DF9390E0FC01E254FE4F249188589E4F77
:1005A000FC0184918823D1F090E0880F991FFC0111
:1005B000EC51FF4FA591B491FC01E250FF4FC59162
:1005C000D491623071F49FB7F8943C91822F80955A
:1005D00083238C93E8812E2B28839FBFDF91CF91BB
:1005E00008958FB7F894EC912E2B2C938FBFF6CFF4
:1005F0003FB7F89480912B0290912C02A0912D028C
:10060000B0912E0226B5A89B05C02F3F19F0019688
:10061000A11DB11D3FBFBA2FA92F982F8827BC015C
:10062000CD01620F711D811D911D42E0660F771F84
:10063000881F991F4A95D1F708958F929F92AF9284
:10064000BF92CF92DF92EF92FF924B015C01D0DF1D
:100650006B017C01CDDF6C197D098E099F09683E15
:10066000734081059105B0F321E0821A9108A10839
:10067000B10888EEC80E83E0D81EE11CF11C81147D
:100680009104A104B10431F7FF90EF90DF90CF9077
:10069000BF90AF909F908F9008958F929F92AF924E
:1006A000BF92EF92FF920F931F93CF93DF93CDB73B
:1006B000DEB7C054D1400FB6F894DEBF0FBECDBF39
:1006C0002FB7F89480912F0290913002A0913102BF
:1006D000B09132022FBF4091830350918403609107
:1006E0008503709186038C019D01041B150B260B5D
:1006F000370BB901A801403D574061057105A0F4D1
:1007000080918B03C05CDE4F0FB6F894DEBF0FBE46
:10071000CDBFDF91CF911F910F91FF90EF90BF90D0
:10072000AF909F908F90089580938303909384035C
:10073000A0938503B093860310927E0310927D03ED
:1007400010927C0310927B0310927A0362E08091F6
:100750007F031DDF61E070E080E090E06EDF61E02C
:1007600080917F0314DF20917F0330E0F901E85E80
:10077000FE4F8491F901E254FE4F949128583E4F68
:10078000F9012491222309F432C0882309F1815010
:100790008231F0F4E82FF0E08827EF52FC4F8F4FC2
:1007A000CFC728042C04E30320042404E8032F0407
:1007B000350439043F04430447044D045104E8035D
:1007C00055045B045F04809180008F7780938000E4
:1007D000E22FF0E0EE0FFF1FE250FF4FA591B49122
:1007E0008FB7F894EC9190959E239C938FBF809146
:1007F00080038551823008F066C08BE291E1019759
:10080000F1F762E080917F03C2DE80918C0390E07B
:100810008230910538F0880F991F880F991F05972E
:100820000197F1F7F89480E046DD6F3F7F4F8F4FDF
:100830009F4F09F04EC010928B03789480E062CFF6
:10084000809180008F7DC2CF80918000877FBECF56
:1008500084B58F7784BDBCCF84B58F7DFBCF80916D
:10086000B0008F778093B000B3CF8091B0008F7DC0
:10087000F9CF809190008F7780939000A9CF8091DD
:1008800090008F7DF9CF80919000877FF5CF809188
:10089000A0008F778093A0009BCF8091A0008F7DD8
:1008A000F9CF8091A000877FF5CF809120018F77CD
:1008B000809320018DCF809120018F7DF9CF809191
:1008C0002001877FF5CF64E170E080E090E0B5DE45
:1008D00098CF81E0F0DC6F3F7F4F8F4F9F4F09F43F
:1008E000AACF9E012F5F3F4F79015E013FEBA31A14
:1008F0003EEFB30A870180E0DEDCF801608371839C
:100900008283938381E0D7DCF801648375838683D7
:100910009783085F1F4FA016B10669F7789430E0FF
:1009200020E0F70180809180A280B38044815581CE
:1009300066817781FFEF8F169F06AF06BF0631F005
:100940004F3F0FEF50076007700719F410928B03A9
:1009500075CFF90183E0F595E7958A95E1F7E658BB
:10096000FC4F8081880F84169506A606B70618F1FD
:1009700080832F5F3F4F18E0E10EF11C28323105D4
:1009800081F640917E0320917A0380917B03280FAA
:100990003327331F80917C03280F311D80917D0305
:1009A000820F932F911D99274817190679F681E038
:1009B00080938B03A7CE8160DBCFFC0101900020E8
:1009C000E9F73197AF01481B590BBC0180ED92E06C
:1009D000AACC8F929F92AF92BF920F931F93CF9307
:1009E000DF93CDB7DEB7A1970FB6F894DEBF0FBE89
:1009F000CDBF19A2423008F44AE08E010F5D1F4FAF
:100A0000842E912CB12CA12CA501940177D6E62F30
:100A1000B901CA01EA30ECF4E05DD801EE938D0132
:100A2000232B242B252B81F790E080E0109711F0E9
:100A3000CD01C3DFA1960FB6F894DEBF0FBECDBFC8
:100A4000DF91CF911F910F91BF90AF909F908F90AA
:100A50000895E95CE2CF4F925F926F927F928F92FE
:100A60009F92AF92BF92CF92DF92EF92FF920F933D
:100A70001F93CF936B017C01742EAC019B013AD67E
:100A8000882391F088E192E0CF911F910F91FF9020
:100A9000EF90DF90CF90BF90AF909F908F907F901E
:100AA0006F905F904F9089CF46015701E894B7F857
:100AB0002FEF3FEF4FE75FE7C501B4011BD6811170
:100AC0000CC02FEF3FEF4FE75FE7C501B40161D4E2
:100AD00018161CF48CE192E0D7CF2FEF3FEF4FE7D1
:100AE0005FE4C701B6019FD518161CF480E292E0BE
:100AF000CBCF2FEF3FEF4FE75FECC701B60149D4F3
:100B000087FDF4CF20E030E0A901C701B60141D450
:100B100010E000E087FF09C06DE280ED92E0A1DC0B
:100B20008C01F7FAF094F7F8F094C0E060E070E020
:100B300080E09FE37C1639F020E030E040E251E4B1
:100B40002CD4CF5FF7CFA7019601BFD32B013C0177
:100B50008CD44B015C014AE03CDF7C01E00EF11ECD
:100B6000CC2381F1C501B401ACD49B01AC01C3011C
:100B7000B201AAD34B015C016EE280ED92E071DC20
:100B8000E80EF91EC150F0F020E030E040E251E400
:100B9000C501B4014CD52B013C0167D44B01B12CEC
:100BA000A12C4AE0C501B40114DFE80EF91EC5010D
:100BB000B40187D49B01AC01C301B20185D34B01C1
:100BC0005C01E0CFC701CF911F910F91FF90EF9093
:100BD000DF90CF90BF90AF909F908F907F906F905D
:100BE0005F904F9008951F920F920FB60F921124AD
:100BF0000BB60F922F933F934F935F936F937F9317
:100C00008F939F93AF93BF93EF93FF9383E392E010
:100C100006DCFF91EF91BF91AF919F918F917F91F2
:100C20006F915F914F913F912F910F900BBE0F905D
:100C30000FBE0F901F9018951F920F920FB60F9234
:100C400011240BB60F922F938F939F93EF93FF93E3
:100C5000E0914302F09144028081E0914902F091D9
:100C60004A0282FD1DC0908180914C028F5F8F737C
:100C700020914D02821741F0E0914C02F0E0ED5CD2
:100C8000FD4F958F80934C02FF91EF919F918F9133
:100C90002F910F900BBE0F900FBE0F901F901895C5
:100CA0008081F2CF1F920F920FB60F9211240BB6D4
:100CB0000F922F933F934F935F936F937F938F93F5
:100CC0009F93AF93BF93EF93FF9380ED92E0A7DBE9
:100CD000FF91EF91BF91AF919F918F917F916F9114
:100CE0005F914F913F912F910F900BBE0F900FBED0
:100CF0000F901F9018951F920F920FB60F9211240C
:100D00000BB60F922F938F939F93EF93FF93E091E6
:100D1000E002F091E1028081E091E602F091E702C9
:100D200082FD1DC090818091E9028F5F8F732091B9
:100D3000EA02821741F0E091E902F0E0E053FD4F52
:100D4000958F8093E902FF91EF919F918F912F9161
:100D50000F900BBE0F900FBE0F901F9018958081C3
:100D6000F2CF1F920F920FB60F9211242F933F9341
:100D70008F939F93AF93BF9380912F0290913002F6
:100D8000A0913102B091320230912A0223E0230F68
:100D90002D3758F50196A11DB11D20932A0280938D
:100DA0002F0290933002A0933102B09332028091CF
:100DB0002B0290912C02A0912D02B0912E0201964F
:100DC000A11DB11D80932B0290932C02A0932D02A4
:100DD000B0932E02BF91AF919F918F913F912F9130
:100DE0000F900FBE0F901F90189526E8230F0296C4
:100DF000A11DB11DD2CF109236021092350248EEDD
:100E000053E060E070E04093370250933802609303
:100E1000390270933A028AE092E090933402809310
:100E200033022DEC30E03093400220933F022CEC53
:100E300030E0309342022093410228EC30E03093BE
:100E400044022093430229EC30E030934602209381
:100E500045022AEC30E030934802209347022EEC02
:100E600030E030934A022093490210924C021092D3
:100E70004D0210924E0210924F021092D302109225
:100E8000D2024093D4025093D5026093D60270935D
:100E9000D7029093D1028093D00285EC90E090939A
:100EA000DD028093DC0284EC90E09093DF0280937B
:100EB000DE0280EC90E09093E1028093E00281EC0E
:100EC00090E09093E3028093E20282EC90E09093B2
:100ED000E5028093E40286EC90E09093E702809331
:100EE000E6021092E9021092EA021092EB021092CE
:100EF000EC028DE080937F038BE080938003EBEC2A
:100F0000F1E0E491E0938103E5E8F1E0E491E0931E
:100F1000820380E89EE3A0E0B0E080938703909393
:100F20008803A0938903B0938A03109277031092E9
:100F3000760382E090E0909379038093780381E0D8
:100F400080936E038CE390E003D4FC0186E390E091
:100F5000918380838FEF9FEF938382839583848334
:100F600082E090E0A0E0B0E0808F918FA28FB38FFD
:100F7000DF015C96CF01C0961D921D92A817B9079C
:100F8000D9F71586178216828EEE92E093878287B4
:100F9000148610AA11AA12AA13AA148A158A168AEC
:100FA000178A80E092E095AB84AB97AB86AB86E284
:100FB00092E0918B808B91AF80AF84E690E0938B31
:100FC000828B81E082AF13AE17861686F093700392
:100FD000E0936F030895789484B5826084BD84B5EE
:100FE000816084BD85B5826085BD85B5816085BD24
:100FF00080916E00816080936E00109281008091DC
:101000008100826080938100809181008160809363
:101010008100809180008160809380008091B10088
:1010200084608093B1008091B00081608093B000B3
:101030008091910082608093910080919100816005
:1010400080939100809190008160809390008091C6
:10105000A10082608093A1008091A10081608093B3
:10106000A1008091A00081608093A0008091210167
:101070008260809321018091210181608093210110
:101080008091200181608093200180917A008460AA
:1010900080937A0080917A00826080937A008091B8
:1010A0007A00816080937A0080917A0080688093D2
:1010B0007A001092C10080ED92E0D6D883E392E0EE
:1010C000D3D862E080917F0362DA2FB7F8948091E1
:1010D0002F0290913002A0913102B09132022FBFC5
:1010E000805D9740A109B1098093830390938403A5
:1010F000A0938503B093860387E380938C03D0E4A9
:1011000068EC70E080E090E098DAC7DA882349F074
:10111000809180038B3028F08D3050F085518230E3
:1011200098F1812C912C20ECA22E2FE7B22E1AC020
:1011300060917B0370E090E080E0C5D12DEC3CEC49
:101140004CEC5DE374D26B017C0160917A0370E03A
:1011500090E080E0B8D19B01AC01C701B601B5D0E9
:101160004B015C019ADA882341F0809180038C3036
:1011700009F489C0C8F48B3071F1C12CD12C80ECFA
:10118000E82E8FE7F82E4CC060917A0370917B03B4
:1011900076276727762790E080E093D12DEC3CEC12
:1011A0004CEC5DE344D2DCCF8551823030F7C09106
:1011B0007C036C2F70E0762F662766277F778091FF
:1011C0007D03682B90E080E07CD12DEC3CEC4CEC76
:1011D0005DE32DD270C060917C0370E090E080E010
:1011E00070D16B017C01C0917D03C7FF09C0AC01C8
:1011F0009B0160E070E080E89FEB66D06B017C01B2
:10120000CF706C2F70E090E080E05DD12DEC3CEC75
:101210004CEC5DE30CD2A701960157D06B017C0129
:1012200042E0C501B40117DC84E292E0C6DB42E093
:10123000C701B60110DC84E292E0BFDB80917B0045
:10124000877F80937B00D0937C0080917A008064BC
:1012500080937A0080917A0086FDFCCF909178008F
:1012600080917900892798278927873292404CF00E
:1012700042E060E070E088EA92E4EDDB86E292E032
:101280009CDB5AD93DCFC0917C036C2F70E090E07D
:1012900080E017D16B017C0160917D036F7070E07D
:1012A00090E080E010D12DEC3CEC4CEC5DE3BFD144
:1012B000A70196010AD06B017C01C7FFB1CFF7FAF5
:1012C000F094F7F8F094ACCF5058BB27AA270ED073
:1012D00070C161D130F066D120F031F49F3F11F43C
:1012E0001EF456C10EF4E095E7FB4CC1E92F72D114
:1012F00080F3BA17620773078407950718F071F433
:101300009EF58AC10EF4E0950B2EBA2FA02D0B018D
:10131000B90190010C01CA01A0011124FF27591B3A
:1013200099F0593F50F4503E68F11A16F040A22F40
:10133000232F342F4427585FF3CF469537952795B1
:10134000A795F0405395C9F77EF41F16BA0B620BB0
:10135000730B840BBAF09150A1F0FF0FBB1F661FF7
:10136000771F881FC2F70EC0BA0F621F731F841F3A
:1013700048F4879577956795B795F7959E3F08F060
:10138000B3CF9395880F08F09927EE0F979587951F
:101390000895D4D008F481E008950CD00AC102D198
:1013A00040F0F9D030F021F45F3F19F0EBC051115B
:1013B00034C1EEC00FD198F39923C9F35523B1F38B
:1013C000951B550BBB27AA2762177307840738F0B4
:1013D0009F5F5F4F220F331F441FAA1FA9F333D013
:1013E0000E2E3AF0E0E830D091505040E695001CC7
:1013F000CAF729D0FE2F27D0660F771F881FBB1F83
:10140000261737074807AB07B0E809F0BB0B802D5C
:10141000BF01FF2793585F4F2AF09E3F510568F0A8
:10142000B1C0FBC05F3FECF3983EDCF38695779547
:101430006795B795F7959F5FC9F7880F911D9695AA
:10144000879597F90895E1E0660F771F881FBB1F06
:10145000621773078407BA0720F0621B730B840BB3
:10146000BA0BEE1F88F7E0950895BCD088F09F571F
:1014700090F0B92F9927B751A0F0D1F0660F771FE0
:10148000881F991F1AF0BA95C9F712C0B13081F0C0
:10149000C3D0B1E00895C0C0672F782F8827B85F08
:1014A00039F0B93FCCF3869577956795B395D9F721
:1014B0003EF490958095709561957F4F8F4F9F4F2B
:1014C0000895E89409C097FB3EF490958095709537
:1014D00061957F4F8F4F9F4F9923A9F0F92F96E980
:1014E000BB279395F695879577956795B795F111F5
:1014F000F8CFFAF4BB0F11F460FF1BC06F5F7F4F92
:101500008F4F9F4F16C0882311F096E911C07723A3
:1015100021F09EE8872F762F05C0662371F096E8AC
:10152000862F70E060E02AF09A95660F771F881F7B
:10153000DAF7880F9695879597F90895990F00081F
:10154000550FAA0BE0E8FEEF16161706E807F90795
:10155000C0F012161306E407F50798F0621B730B30
:10156000840B950B39F40A2661F0232B242B252BB1
:1015700021F408950A2609F4A140A6958FEF811D54
:10158000811D089597F99F6780E870E060E00895F5
:101590009FEF80EC089500240A941616170618068B
:1015A0000906089500240A94121613061406050667
:1015B0000895092E0394000C11F4882352F0BB0FF8
:1015C00040F4BF2B11F460FF04C06F5F7F4F8F4F5B
:1015D0009F4F089557FD9058440F551F59F05F3F96
:1015E00071F04795880F97FB991F61F09F3F79F045
:1015F00087950895121613061406551FF2CF4695C7
:10160000F1DF08C0161617061806991FF1CF869548
:101610007105610508940895E894BB27662777272C
:10162000CB0197F908958ADF08F48FEF08950BD066
:10163000C0CFB1DF28F0B6DF18F0952309F0A2CFB4
:10164000A7CF1124EACFC6DFA0F3959FD1F3950F62
:1016500050E0551F629FF001729FBB27F00DB11D36
:10166000639FAA27F00DB11DAA1F649F6627B00DC6
:10167000A11D661F829F2227B00DA11D621F739FAF
:10168000B00DA11D621F839FA00D611D221F749FBD
:101690003327A00D611D231F849F600D211D822F04
:1016A000762F6A2F11249F5750408AF0E1F088234B
:1016B0004AF0EE0FFF1FBB1F661F771F881F915058
:1016C0005040A9F79E3F510570F05CCFA6CF5F3F19
:1016D000ECF3983EDCF3869577956795B795F7958B
:1016E000E7959F5FC1F7FE2B880F911D9695879513
:1016F00097F9089523DF880B990B0895A1E21A2E1C
:10170000AA1BBB1BFD010DC0AA1FBB1FEE1FFF1FA5
:10171000A217B307E407F50720F0A21BB30BE40BF5
:10172000F50B661F771F881F991F1A9469F760953C
:101730007095809590959B01AC01BD01CF010895F6
:10174000EE0FFF1F881F8BBF0790F691E02D1994B5
:101750000F931F93CF93DF938230910510F482E0B3
:1017600090E0E0918F03F091900330E020E0B0E052
:10177000A0E0309799F42115310509F44AC0281BDF
:10178000390B24303105D8F58A819B8161157105AB
:1017900089F1FB0193838283FE0111C04081518155
:1017A0000281138148175907E0F04817590799F447
:1017B000109761F012960C93129713961C93329621
:1017C000CF01DF91CF911F910F91089500938F0367
:1017D00010939003F4CF2115310551F042175307B0
:1017E00038F0A901DB019A01BD01DF01F801C1CF89
:1017F000EF01F9CF9093900380938F03CDCFFE013B
:10180000E20FF31F8193919322503109398328838A
:10181000D7CF20918D0330918E03232B41F420915B
:1018200002023091030230938E0320938D032091A6
:101830000002309101022115310541F42DB73EB768
:101840004091040250910502241B350BE0918D0359
:10185000F0918E03E217F307A0F42E1B3F0B28171D
:10186000390778F0AC014E5F5F4F2417350748F019
:101870004E0F5F1F50938E0340938D03819391937E
:101880009FCFF0E0E0E09CCFCF93DF930097E9F0AB
:10189000FC01329713821282A0918F03B0919003C2
:1018A000ED0130E020E01097A1F420813181820F1A
:1018B000931F20918D0330918E032817390709F06B
:1018C00061C0F0938E03E0938D03DF91CF91089573
:1018D000EA01CE17DF07E8F54A815B819E014115D9
:1018E0005105B1F7E901FB83EA8349915991C40F8E
:1018F000D51FEC17FD0761F4808191810296840F5A
:10190000951FE90199838883828193819B838A83D0
:10191000F0E0E0E012968D919C9113970097B9F555
:101920002D913C911197CD010296820F931F20912A
:101930008D0330918E032817390739F6309751F50A
:101940001092900310928F03B0938E03A0938D0397
:10195000BCCFD383C28340815181840F951FC817A8
:10196000D90761F44E5F5F4F88819981480F591FF5
:10197000518340838A819B81938382832115310522
:1019800009F0B0CFF0939003E0938F039ECFFD0159
:0E199000DC01C0CF13821282D7CFF894FFCFB4
:10199E000000910380000000000031029301C0019D
:1019AE007D02F101CF01E3016E616E00696E66008A
:0A19BE006F76660078000D0A000045
:00000001FF
